:020000040800F2
:100000000028002035180008C5170008CB17000885
:10001000D1170008D7170008DD17000800000000FE
:10002000000000000000000000000000E3170008CE
:10003000EF17000800000000FB1700080718000871
:100040007D1800087D1800087D1800087D1800083C
:100050007D1800087D1800087D1800087D1800082C
:100060007D1800087D1800087D1800087D1800081C
:100070007D1800087D1800087D1800087D1800080C
:100080007D1800087D1800087D1800087D180008FC
:100090007D1800087D1800087D1800087D180008EC
:1000A0007D1800087D1800087D1800087D180008DC
:1000B000151800087D180008000000007D180008D1
:1000C0007D18000800000000000000007D180008F6
:1000D000000000007D1800087D18000800000000E6
:1000E0007D1800087D1800087D1800080000000039
:1000F0000000000000000000000000000000000000
:0C01000000000000000000005FF808F1A3
:10010C0010B5054C237833B9044B13B10448AFF345
:10011C0000800123237010BD4C0000200000000063
:10012C007C2E000808B5034B1BB103490348AFF301
:10013C00008008BD00000000500000207C2E00084C
:10014C0080B400AF064B1B68012B04D1044B00227A
:10015C001A60012300E000231846BD4680BC70479E
:10016C006800002080B400AF064B1B68012B04D143
:10017C00044B00221A60012300E000231846BD4600
:10018C0080BC70476C00002080B400AF064B1B682D
:10019C00012B04D1044B00221A60012300E0002340
:1001AC001846BD4680BC70477000002080B582B0F8
:1001BC0000AF00237B609FE0544A7B6852F82320F9
:1001CC0053497B6841F82320524A7B6852F823201C
:1001DC004E497B6841F823207B68022B21D07B6839
:1001EC00022B2ADC7B68002B03D07B68012B0CD004
:1001FC0023E04FF40051484801F026FE034619460F
:10020C00444A7B6842F8231018E04FF4804142487E
:10021C0001F01AFE034619463E4A7B6842F8231049
:10022C000CE04FF400413C4801F00EFE0346194629
:10023C00384A7B6842F8231000E000BF344A7B68E0
:10024C0052F8232031497B6851F823309A4250D11F
:10025C002E4A7B6852F823202E497B6851F82330B4
:10026C009A4246D12D4A7B6852F8232029497B6853
:10027C0051F823309A422BD0264A7B6852F823201F
:10028C0026497B6841F82320224A7B6852F82330A8
:10029C00002B2ED17B68022B11D07B68022B12DC39
:1002AC007B68002B03D07B68012B04D00BE01C4B2C
:1002BC0001221A6008E01B4B01221A6004E01A4B61
:1002CC0001221A6000E000BF184B32221A6010E0C5
:1002DC00164B1B68013B154A1360144B1B68002B13
:1002EC0007DC0E4A7B68012142F823100F4B3222A7
:1002FC001A607B6801337B607B68022B7FF75CAFF5
:10030C0000BF00BF0837BD4680BD00BF0C000020F9
:10031C0000000020180000200010014024000020E4
:10032C00680000206C0000207000002030000020CD
:10033C0080B500AF00F0BEF94FF47A7200210F487F
:10034C0000F0C6FF0346DAB20D4B1A704FF47A7206
:10035C0000210C4800F0BCFF0346DAB20A4B1A70BD
:10036C004FF47A724FF4FA71084800F0B1FF03466B
:10037C00DAB2074B1A7000BF80BD00BF99070008A6
:10038C00C0030020290A0008A8030020550A000811
:10039C00CC03002080B500AFB84B1B68032B00F2D8
:1003AC00618101A252F823F0C50300081B04000868
:1003BC00C304000891050008FFF7C2FE0346012B99
:1003CC0040F0528101224FF4FC61AD4801F053FD25
:1003DC0000224FF48041AB4801F04DFD00224FF458
:1003EC000041A84801F047FDA74B1B78184600F0C8
:1003FC00CBFFA64B1B78184600F0C6FFA44B1B780E
:10040C00184600F0C1FF9D4B01221A602CE1A14B54
:10041C001B68184600F08AFE00222021984801F043
:10042C002AFD00224FF48071954801F024FDFFF75E
:10043C0099FE0346012B0ED1964B1B685A1C964B0A
:10044C0083FB02135911D317CB1A642101FB03F35D
:10045C00D31A904A1360FFF797FE0346012B15D170
:10046C0001222021864801F006FD01224FF4807103
:10047C00834801F000FD874B1B684FF47A7202FB36
:10048C0003F3864A13607D4B02221A60FFF758FE75
:10049C000346012B40F0EA8001222021784801F02C
:1004AC00EAFC01224FF48071754801F0E4FC734BB7
:1004BC0002221A60DAE07A4B1B68184600F036FE0E
:1004CC00002240216E4801F0D6FC00224FF400714E
:1004DC006B4801F0D0FCFFF745FE0346012B12D10F
:1004EC00704B1B68002B0EDD6D4B1B685A1C6A4B46
:1004FC0083FB02135911D317CB1A642101FB03F3AD
:10050C00D31A674A1360FFF73FFE0346012B24D131
:10051C00012240215A4801F0AEFC01224FF4007137
:10052C00574801F0A8FC5E4B1B684FF47A7202FB33
:10053C0003F35D4A1360574B1A68594B1B68D31A67
:10054C00584A1360574B1B684FF47A7202FB03F343
:10055C00564A1360494B03221A60FFF7F1FD03461C
:10056C00012B40F0858001224021454801F083FC9D
:10057C0001224FF40071424801F07DFC3F4B0322F5
:10058C001A6075E0474B1B68184600F0CFFD00223F
:10059C0080213B4801F06FFC00224FF48061384809
:1005AC0001F069FCFFF7DEFD0346012B12D13C4B39
:1005BC001B68002B0EDD3B4B1B685A1C364B83FB18
:1005CC0002135911D317CB1A642101FB03F3D31A6D
:1005DC00344A1360FFF7D8FD0346012B29D1314B68
:1005EC001B684FF47A7202FB03F3304A1360294BF9
:1005FC001A682C4B1B68D31A294A1360284B1B68AA
:10060C004FF47A7202FB03F3274A13600122802114
:10061C001B4801F030FC01224FF48061184801F0B6
:10062C002AFC00220021224800F052FE134B00222B
:10063C001A60FFF785FD0346012B1BD10122802197
:10064C000F4801F018FC01224FF480610C4801F0B6
:10065C0012FC00220021164800F03AFE074B002243
:10066C001A6007E000BF06E000BF04E000BF02E034
:10067C0000BF00E000BF00BF80BD00BF74000020C1
:10068C0000080140000C0140C0030020A80300201A
:10069C00CC030020780000201F85EB513400002093
:1006AC007C000020800000203C000020380000204E
:1006BC003D03000880B400AF264B1B68264A82FB22
:1006CC0003129211DB17D31A244A1360234B1B68B5
:1006DC00234A1360224B1B68224A1360224B1B686F
:1006EC001D4A82FB03129211DB17D31A1F4A1360A7
:1006FC001E4B1B681E4A13601D4B1B681D4A136062
:10070C001D4B1B68144A82FB03129211DB17D31A80
:10071C001A4A1360194B1B68194A1360184B1B6853
:10072C00184A1360144B1B680B4A82FB031292117C
:10073C00DB17D31A144A1360064B1B68064A82FB5C
:10074C0003129211DB17D31A0F4A536000BFBD4638
:10075C0080BC704734000020D34D6210780000201C
:10076C00AC030020C40300203C0000207C000020CF
:10077C00B8030020A40300203800002080000020D3
:10078C00BC030020C8030020B003002080B500AFDC
:10079C008B4B1B68002B16DD894B1B685A1E884936
:1007AC000A60884A136001222021874801F063FB0C
:1007BC0001224021844801F05EFB00228021824806
:1007CC0001F059FB69E0814B1B68002B16DD7F4B58
:1007DC001B685A1E7D490A607A4A13600122202147
:1007EC00794801F048FB00224021774801F043FB97
:1007FC0001228021744801F03EFB4EE0744B1B68D3
:10080C00002B16DD724B1B685A1E71490A606D4A2B
:10081C001360002220216C4801F02DFB01224021A5
:10082C00694801F028FB01228021674801F023FB75
:10083C0033E0684B1B68684A82FB03129211DB178A
:10084C00D31A634A1360654B1B68634A82FB03121D
:10085C009211DB17D31A5D4A1360614B1B685E4A19
:10086C0082FB03129211DB17D31A554A1360544BB7
:10087C001B685A1E52490A60524A136001222021F9
:10088C00514801F0F8FA012240214F4801F0F3FAE7
:10089C00002280214C4801F0EEFA524B1B68002BD1
:1008AC0019DD504B1B685A1E4E490A60454A53606D
:1008BC0000224FF48071444801F0DDFA01224FF41C
:1008CC000071414801F0D7FA01224FF480613E4893
:1008DC0001F0D1FA72E0444B1B68002B19DD424B3E
:1008EC001B685A1E40490A60364A536001224FF475
:1008FC008071354801F0BFFA01224FF40071324883
:10090C0001F0B9FA00224FF480612F4801F0B3FADC
:10091C0054E0364B1B68002B19DD344B1B685A1EF8
:10092C0032490A60274A536001224FF480712648ED
:10093C0001F0A1FA00224FF40071234801F09BFA58
:10094C0001224FF48061204801F095FA36E0214BEA
:10095C001B68214A82FB03129211DB17D31A214A1E
:10096C0013601E4B1B681C4A82FB03129211DB178F
:10097C00D31A1E4A13601A4B1B68174A82FB0312C8
:10098C009211DB17D31A184A1360164B1B685A1EA8
:10099C0014490A600B4A536000224FF480710A48D4
:1009AC0001F069FA01224FF40071074801F063FA73
:1009BC0001224FF48061044801F05DFA00BF80BD54
:1009CC00C8030020B003002000080140A40300204D
:1009DC00C403002034000020D34D62103C000020E2
:1009EC0038000020AC030020BC030020B80300201A
:1009FC0080B582B000AF78607B68002B03F00103F8
:100A0C00B8BF5B42044A52F82330184600F08EFB04
:100A1C0000BF0837BD4680BDB003002080B500AFD5
:100A2C000020FFF7E5FF00224FF48041054801F05C
:100A3C0022FA01224FF40041024801F01CFA00BFD7
:100A4C0080BD00BF000C014080B500AF0120FFF756
:100A5C00CFFF01224FF48041054801F00CFA00222F
:100A6C004FF40041024801F006FA00BF80BD00BF00
:100A7C00000C014080B582B000AF78607B68092B18
:100A8C0000F2BC8101A252F823F000BFC10A000899
:100A9C00150B0008690B0008BD0B0008110C0008B1
:100AAC00650C0008B90C00080D0D0008610D00085C
:100ABC00B50D000800228021D34801F0DCF900229A
:100ACC004FF48071D04801F0D6F900224FF4007138
:100ADC00CD4801F0D0F900224FF48061CA4801F0F2
:100AEC00CAF900224FF40061C74801F0C4F9002292
:100AFC004FF48051C44801F0BEF901224FF400516B
:100B0C00C14801F0B8F97AE101228021BE4801F018
:100B1C00B2F900224FF48071BB4801F0ACF900220D
:100B2C004FF40071B84801F0A6F901224FF480612E
:100B3C00B54801F0A0F901224FF40061B24801F070
:100B4C009AF901224FF48051AF4801F094F9012237
:100B5C004FF40051AC4801F08EF950E10022802195
:100B6C00A94801F088F900224FF48071A64801F0E1
:100B7C0082F901224FF40071A34801F07CF90022A4
:100B8C004FF48061A04801F076F900224FF4006127
:100B9C009D4801F070F901224FF480519A4801F000
:100BAC006AF900224FF40051974801F064F926E1EC
:100BBC0000228021944801F05EF900224FF48071EC
:100BCC00914801F058F900224FF400718E4801F061
:100BDC0052F900224FF480618B4801F04CF901224C
:100BEC004FF40061884801F046F901224FF480511E
:100BFC00854801F040F900224FF40051824801F081
:100C0C003AF9FCE0012280217F4801F034F90022FE
:100C1C004FF480717C4801F02EF900224FF40071E2
:100C2C00794801F028F901224FF48061764801F0EF
:100C3C0022F901224FF40061734801F01CF90022E3
:100C4C004FF48051704801F016F900224FF4005116
:100C5C006D4801F010F9D2E0002280216A4801F0C1
:100C6C000AF901224FF48071674801F004F900225F
:100C7C004FF40071644801F0FEF800224FF48061DB
:100C8C00614801F0F8F801224FF400615E4801F070
:100C9C00F2F800224FF480515B4801F0ECF800228E
:100CAC004FF40051584801F0E6F8A8E000228021EA
:100CBC00554801F0E0F801224FF48071524801F0E0
:100CCC00DAF800224FF400714F4801F0D4F80022FA
:100CDC004FF480614C4801F0CEF800224FF40061D3
:100CEC00494801F0C8F800224FF48051464801F001
:100CFC00C2F800224FF40051434801F0BCF87EE0EA
:100D0C0000228021404801F0B6F800224FF4807197
:100D1C003D4801F0B0F800224FF400713A4801F060
:100D2C00AAF801224FF48061374801F0A4F801229F
:100D3C004FF40061344801F09EF801224FF48051C9
:100D4C00314801F098F801224FF400512E4801F07F
:100D5C0092F854E0002280212B4801F08CF80022FC
:100D6C004FF48071284801F086F800224FF400718E
:100D7C00254801F080F800224FF48061224801F0F0
:100D8C007AF800224FF400611F4801F074F8002239
:100D9C004FF480511C4801F06EF800224FF40051C2
:100DAC00194801F068F82AE000228021164801F069
:100DBC0062F800224FF48071134801F05CF80022B5
:100DCC004FF40071104801F056F800224FF4806186
:100DDC000D4801F050F801224FF400610A4801F06F
:100DEC004AF800224FF48051074801F044F80022E1
:100DFC004FF40051044801F03EF800E000BF00BF82
:100E0C000837BD4680BD00BF000C014080B582B0E4
:100E1C0000AF78607B68092B00F2808101A252F848
:100E2C0023F000BF590E0008A10E0008E90E0008BF
:100E3C00310F0008790F0008C10F000809100008D5
:100E4C005110000899100008E1100008002201213F
:100E5C00B54801F010F800220221B34801F00BF85C
:100E6C0000220421B04801F006F800220821AE4807
:100E7C0001F001F800221021AB4800F0FCFF002229
:100E8C002021A94800F0F7FF01224021A64800F0DC
:100E9C00F2FF44E101220121A34800F0ECFF002203
:100EAC000221A14800F0E7FF002204219E4800F037
:100EBC00E2FF012208219C4800F0DDFF01221021F5
:100ECC00994800F0D8FF01222021974800F0D3FF69
:100EDC0001224021944800F0CEFF20E100220121A4
:100EEC00914800F0C8FF002202218F4800F0C3FF98
:100EFC00012204218C4800F0BEFF002208218A4800
:100F0C0000F0B9FF00221021874800F0B4FF012245
:100F1C002021854800F0AFFF00224021824800F0DC
:100F2C00AAFFFCE0002201217F4800F0A4FF002270
:100F3C0002217D4800F09FFF002204217A4800F036
:100F4C009AFF00220821784800F095FF0122102119
:100F5C00754800F090FF01222021734800F08BFFB0
:100F6C0000224021704800F086FFD8E001220121C8
:100F7C006D4800F080FF002202216B4800F07BFFDF
:100F8C0000220421684800F076FF012208216648FF
:100F9C0000F071FF01221021634800F06CFF002269
:100FAC002021614800F067FF002240215E4800F0DC
:100FBC0062FFB4E0002201215B4800F05CFF0122DB
:100FCC000221594800F057FF00220421564800F036
:100FDC0052FF00220821544800F04DFF012210213D
:100FEC00514800F048FF002220214F4800F043FFF9
:100FFC00002240214C4800F03EFF90E000220121ED
:10100C00494800F038FF01220221474800F033FF25
:10101C0000220421444800F02EFF002208214248FF
:10102C0000F029FF002210213F4800F024FF00228D
:10103C0020213D4800F01FFF002240213A4800F0DB
:10104C001AFF6CE000220121374800F014FF002247
:10105C000221354800F00FFF00220421324800F035
:10106C000AFF01220821304800F005FF012210215F
:10107C002D4800F000FF012220212B4800F0FBFE40
:10108C0001224021284800F0F6FE48E00022012110
:10109C00254800F0F0FE00220221234800F0EBFE70
:1010AC0000220421204800F0E6FE002208211E4800
:1010BC0000F0E1FE002210211B4800F0DCFE0022B3
:1010CC002021194800F0D7FE00224021164800F0DC
:1010DC00D2FE24E000220121134800F0CCFE0022B5
:1010EC000221114800F0C7FE002204210E4800F036
:1010FC00C2FE002208210C4800F0BDFE0122102186
:10110C00094800F0B8FE00222021074800F0B3FE89
:10111C0000224021044800F0AEFE00E000BF00BFFA
:10112C000837BD4680BD00BF000C014080B582B0C1
:10113C0000AF78607B68144A82FB03125111DA17F6
:10114C008A1A642101FB02F29B1A7B607B680F4AAE
:10115C0082FB03129210DB17D31A1846FFF756FEC8
:10116C007A680A4B83FB02139910D317C91A0B46E2
:10117C009B000B445B00D11A0846FFF77BFC00BFB9
:10118C000837BD4680BD00BF1F85EB51676666669C
:10119C0080B483B000AF00237B6033E01E497A68D3
:1011AC0013469B0013449B000B4400221A601A49FF
:1011BC007A6813469B0013449B000B4404330022B3
:1011CC001A6015497A6813469B0013449B000B4424
:1011DC00083300221A6010497A6813469B001344A6
:1011EC009B000B440C3300221A700B497A6813468F
:1011FC009B0013449B000B44103300221A607B6845
:10120C0001337B607B68272BC8DD00BF00BF0C3728
:10121C00BD4680BC704700BF8400002080B483B002
:10122C0000AF00237B6048E028497A6813469B0096
:10123C0013449B000B4404331B68002B13D023492D
:10124C007A6813469B0013449B000B4404331B68C1
:10125C00591E1E487A6813469B0013449B00034496
:10126C000433196026E019497A6813469B0013442D
:10127C009B000B440833196814487A6813469B008A
:10128C0013449B0003440433196010497A681346D5
:10129C009B0013449B000B440C331B780133D8B2D6
:1012AC000A497A6813469B0013449B000B440C3389
:1012BC0002461A707B6801337B607B68272BB3DD99
:1012CC0000BF00BF0C37BD4680BC704784000020B7
:1012DC0080B487B000AFF860B9607A600023FB750A
:1012EC0002E0FB7D0133FB75FA7D254913469B001B
:1012FC0013449B000B441B68002B02D0FB7D272B57
:10130C00EFD9FA7D1E4913469B0013449B000B44F6
:10131C00FA681A60FA7DBB681A49A1FB0313D90855
:10132C00174813469B0013449B0003440433196075
:10133C00FA7D7B681349A1FB0313D90810481346A7
:10134C009B0013449B00034408331960FA7D0C493D
:10135C0013469B0013449B000B440C3300221A7061
:10136C00FA7DF97D064813469B0013449B00034409
:10137C0010331960FB7D18461C37BD4680BC704786
:10138C0084000020CDCCCCCC80B483B000AF03461D
:10139C00FB71FA791A4913469B0013449B000B44CA
:1013AC0000221A60FA79164913469B0013449B00DD
:1013BC000B44083300221A60FA79114913469B003A
:1013CC0013449B000B44043300221A60FA790C4935
:1013DC0013469B0013449B000B440C3300221A70E1
:1013EC00FA79074913469B0013449B000B441033B6
:1013FC0000221A6000BF0C37BD4680BC704700BF8E
:10140C008400002080B582B000AF00237B6045E0F3
:10141C0026497A6813469B0013449B000B440C33FB
:10142C001B78002B37D021497A6813469B00134454
:10143C009B000B440C331B78013BD8B21B497A68D8
:10144C0013469B0013449B000B440C3302461A704A
:10145C0016497A6813469B0013449B000B441B6887
:10146C00002B08D011497A6813469B0013449B004B
:10147C000B441B6898470D497A6813469B0013442C
:10148C009B000B4408331B68002B04D17B68DBB238
:10149C001846FFF779FF7B6801337B607B68272B4D
:1014AC00B6DD00BF00BF0837BD4680BD84000020FC
:1014BC0080B500AF00F0DEF900F01CF800F0A2F8E7
:1014CC0000F054F8084801F01BF9FFF761FE002208
:1014DC0000210648FFF7FCFE0A2200210448FFF712
:1014EC00F7FEFFF78FFFFCE7D00300203D03000859
:1014FC00A103000880B590B000AF07F118032822B3
:10150C000021184601F0ACFC3B1D00221A605A6009
:10151C009A60DA601A610223BB610123BB6210235B
:10152C00FB6200237B6307F11803184600F0BCFC38
:10153C000346002B01D000F0E3F80F237B6000235F
:10154C00BB600023FB6000233B6100237B613B1DE0
:10155C000021184600F028FF0346002B01D000F0B4
:10156C00CFF800BF4037BD4680BD000080B586B0C7
:10157C0000AF07F1080300221A605A609A60DA6023
:10158C003B4600221A605A601D4B4FF080421A6095
:10159C001B4B41F63F725A60194B00229A60184B54
:1015AC000922DA60164B00221A61154B00229A614F
:1015BC00134801F055F80346002B01D000F0A0F8B9
:1015CC004FF48053BB6007F1080319460C4801F037
:1015DC00D3F90346002B01D000F092F800233B60B6
:1015EC0000237B603B461946054801F0ABFB0346E4
:1015FC00002B01D000F084F800BF1837BD4680BD29
:10160C00D003002080B588B000AF07F11003002292
:10161C001A605A609A60DA602F4B9B692E4A43F02D
:10162C00100393612C4B9B6903F01003FB60FB6868
:10163C00294B9B69284A43F004039361264B9B6911
:10164C0003F00403BB60BB68234B9B69224A43F045
:10165C0008039361204B9B6903F008037B607B6854
:10166C0001224FF4FC611D4800F005FC01224FF6ED
:10167C00FF711B4800F0FFFB4FF460433B610023FC
:10168C007B610123BB6107F110031946154800F07B
:10169C0061FA4FF4FC633B6101237B610023BB6166
:1016AC000223FB6107F1100319460C4800F052FAB3
:1016BC004FF6FF733B6101237B610023BB61022367
:1016CC00FB6107F110031946054800F043FA00BF0F
:1016DC002037BD4680BD00BF00100240000801400D
:1016EC00000C01400010014080B582B000AF786062
:1016FC00FFF794FDFEF75AFD00BF0837BD4680BDCD
:10170C0080B400AF72B600BFFEE7000080B485B0B5
:10171C0000AF154B9B69144A43F001039361124BC4
:10172C009B6903F00103BB60BB680F4BDB690E4A7E
:10173C0043F08053D3610C4BDB6903F080537B6027
:10174C007B680A4B5B68FB60FB6823F0E063FB6023
:10175C00FB6843F08063FB60044AFB68536000BF86
:10176C001437BD4680BC7047001002400000014099
:10177C0080B584B000AF78607B681B68B3F1804F94
:10178C0013D10C4BDB690B4A43F00103D361094BBA
:10179C00DB6903F00103FB60FB68002200211C20C5
:1017AC0000F0A1F91C2000F0BAF900BF1037BD46BB
:1017BC0080BD00BF0010024080B400AFFEE780B4D3
:1017CC0000AFFEE780B400AFFEE780B400AFFEE7E9
:1017DC0080B400AFFEE780B400AF00BFBD4680BC54
:1017EC00704780B400AF00BFBD4680BC704780B46A
:1017FC0000AF00BFBD4680BC704780B500AF00F0A5
:10180C007FF800BF80BD000080B500AF024800F03B
:10181C00C3FF00BF80BD00BFD003002080B400AF69
:10182C0000BFBD4680BC7047FFF7F8FF0B480C4962
:10183C000C4A002302E0D458C4500433C4188C4220
:10184C00F9D3094A094C002301E013600432A24287
:10185C00FBD301F0E1FAFFF72BFE704700000020EC
:10186C004C000020C02E00084C0000201C0400205E
:10187C00FEE7000080B500AF084B1B68074A43F039
:10188C0010031360032000F023F90F2000F008F878
:10189C00FFF73CFF0023184680BD00BF002002402C
:1018AC0080B582B000AF7860124B1A68124B1B786F
:1018BC0019464FF47A73B3FBF1F3B2FBF3F318460A
:1018CC0000F03BF90346002B01D001230EE07B68AE
:1018DC000F2B0AD8002279684FF0FF3000F003F983
:1018EC00064A7B681360002300E001231846083782
:1018FC00BD4680BD40000020480000204400002070
:10190C0080B400AF054B1B781A46054B1B6813447B
:10191C00034A136000BFBD4680BC704748000020DE
:10192C001804002080B400AF024B1B681846BD465B
:10193C0080BC70471804002080B485B000AF78607C
:10194C007B6803F00703FB600C4BDB68BB60BA6879
:10195C004FF6FF031340BB60FB681A02BB681343CE
:10196C0043F0BF6343F40033BB60044ABB68D360ED
:10197C0000BF1437BD4680BC704700BF00ED00E0CF
:10198C0080B400AF044BDB681B0A03F00703184656
:10199C00BD4680BC704700BF00ED00E080B483B052
:1019AC0000AF0346FB7197F90730002B0BDBFB797B
:1019BC0003F01F02064997F907305B09012000FA72
:1019CC0002F241F8232000BF0C37BD4680BC7047A3
:1019DC0000E100E080B483B000AF03463960FB71D6
:1019EC0097F90730002B0ADB3B68DAB20C4997F900
:1019FC0007301201D2B20B4483F800230AE03B6893
:101A0C00DAB20849FB7903F00F03043B1201D2B29E
:101A1C000B441A7600BF0C37BD4680BC704700BF24
:101A2C0000E100E000ED00E080B489B000AFF860A8
:101A3C00B9607A60FB6803F00703FB61FB69C3F1D3
:101A4C000703042B28BF0423BB61FB690433062B5B
:101A5C0002D9FB69033B00E000237B614FF0FF32AE
:101A6C00BB6902FA03F3DA43BB681A407B699A40FC
:101A7C004FF0FF317B6901FA03F3D9437B680B40CC
:101A8C00134318462437BD4680BC704780B582B0DE
:101A9C0000AF78607B68013BB3F1807F01D30123F9
:101AAC000FE00A4A7B68013B53600F214FF0FF3077
:101ABC00FFF790FF054B00229A60044B07221A6037
:101ACC00002318460837BD4680BD00BF10E000E07B
:101ADC0080B582B000AF78607868FFF72DFF00BF4B
:101AEC000837BD4680BD80B586B000AF0346B960EF
:101AFC007A60FB7300237B61FFF742FF78617A68A1
:101B0C00B9687869FFF790FF024697F90F301146D4
:101B1C001846FFF75FFF00BF1837BD4680BD80B584
:101B2C0082B000AF0346FB7197F907301846FFF7F8
:101B3C0035FF00BF0837BD4680BD80B582B000AF11
:101B4C0078607868FFF7A2FF034618460837BD4651
:101B5C0080BD000080B48BB000AF7860396000238A
:101B6C007B6200233B6248E101227B6A02FA03F3A9
:101B7C00FB613B681B68FA691340BB61BA69FB697E
:101B8C009A4240F037813B685B68A34A93425ED02F
:101B9C00A14A934275D8A14A934258D09F4A934286
:101BAC006FD89F4A934252D09D4A934269D89D4A1E
:101BBC0093424CD09B4A934263D89B4A934246D063
:101BCC00994A93425DD8122B2AD8122B59D801A2CC
:101BDC0052F823F05B1C0008351C0008471C000859
:101BEC00891C00088F1C00088F1C00088F1C000823
:101BFC008F1C00088F1C00088F1C00088F1C00080D
:101C0C008F1C00088F1C00088F1C00088F1C0008FC
:101C1C008F1C00088F1C00083D1C0008511C00087C
:101C2C00824A934213D02CE03B68DB683B6229E08C
:101C3C003B68DB6804333B6224E03B68DB680833B9
:101C4C003B621FE03B68DB680C333B621AE03B688D
:101C5C009B68002B02D104233B6213E03B689B681A
:101C6C00012B05D108233B627B68FA691A6109E0F4
:101C7C0008233B627B68FA695A6103E000233B62EC
:101C8C0000E000BFBB69FF2B01D87B6801E07B68DB
:101C9C0004337B61BB69FF2B02D87B6A9B0002E09B
:101CAC007B6A083B9B003B617B691A680F213B698F
:101CBC0001FA03F3DB431A40396A3B6901FA03F377
:101CCC001A437B691A603B685B6803F08053002BF6
:101CDC0000F09080564B9B69554A43F00103936189
:101CEC00534B9B6903F00103BB60BB68514A7B6A91
:101CFC009B08023352F82330FB607B6A03F003032A
:101D0C009B000F2202FA03F3DB43FA681340FB60DB
:101D1C007B68494A93420DD07B68484A934207D06E
:101D2C007B68474A934201D1022304E0032302E07B
:101D3C00012300E000237A6A02F003029200934030
:101D4C00FA681343FB603B497B6A9B080233FA68D1
:101D5C0041F823203B685B6803F48013002B06D00A
:101D6C00384B9A683749BB6913438B6006E0354B97
:101D7C009A68BB69DB43334913408B603B685B68F3
:101D8C0003F40013002B06D02E4BDA682D49BB69E7
:101D9C001343CB6006E02B4BDA68BB69DB43294964
:101DAC001340CB603B685B6803F40033002B06D018
:101DBC00244B5A682349BB6913434B6006E0214B03
:101DCC005A68BB69DB431F4913404B603B685B6837
:101DDC0003F48033002B06D01A4B1A681949BB69DF
:101DEC0013430B6006E0174B1A68BB69DB431549BC
:101DFC0013400B607B6A01337B623B681A687B6A19
:101E0C0022FA03F3002B7FF4AFAE00BF00BF2C37D8
:101E1C00BD4680BC704700BF00003210000031107E
:101E2C000000221000002110000012100000111000
:101E3C00001002400000014000080140000C01406D
:101E4C00001001400004014080B485B000AF786000
:101E5C000B467B807B689A687B881340002B02D0F2
:101E6C000123FB7301E00023FB73FB7B1846143743
:101E7C00BD4680BC704780B483B000AF78600B4621
:101E8C007B8013467B707B78002B03D07A887B6831
:101E9C001A6103E07B881A047B681A6100BF0C3757
:101EAC00BD4680BC7047000080B586B000AF78603E
:101EBC007B68002B01D101236CE27B681B6803F06B
:101ECC000103002B00F08780924B5B6803F00C033E
:101EDC00042B0CD08F4B5B6803F00C03082B12D136
:101EEC008C4B5B6803F48033B3F5803F0BD1894B8B
:101EFC001B6803F40033002B6CD07B685B68002BF1
:101F0C0068D1012346E27B685B68B3F5803F06D15C
:101F1C00804B1B687F4A43F4803313602EE07B6850
:101F2C005B68002B0CD17B4B1B687A4A23F4803303
:101F3C001360784B1B68774A23F4802313601DE0F1
:101F4C007B685B68B3F5A02F0CD1724B1B68714A90
:101F5C0043F4802313606F4B1B686E4A43F4803349
:101F6C0013600BE06B4B1B686A4A23F480331360DD
:101F7C00684B1B68674A23F4802313607B685B689B
:101F8C00002B13D0FFF7CEFC386108E0FFF7CAFC3A
:101F9C0002463B69D31A642B01D90323FAE15D4B4A
:101FAC001B6803F40033002BF0D014E0FFF7BAFCED
:101FBC00386108E0FFF7B6FC02463B69D31A642B84
:101FCC0001D90323E6E1534B1B6803F40033002BC8
:101FDC00F0D100E000BF7B681B6803F00203002B0C
:101FEC0063D04C4B5B6803F00C03002B0BD0494BBC
:101FFC005B6803F00C03082B1CD1464B5B6803F4A5
:10200C008033002B16D1434B1B6803F00203002BCB
:10201C0005D07B681B69012B01D00123BAE13D4B34
:10202C001B6823F0F8027B685B69DB0039491343BA
:10203C000B603AE07B681B69002B20D0364B0122E9
:10204C001A60FFF76FFC386108E0FFF76BFC024683
:10205C003B69D31A022B01D903239BE12D4B1B683F
:10206C0003F00203002BF0D02A4B1B6823F0F8027C
:10207C007B685B69DB00274913430B6015E0264B3B
:10208C0000221A60FFF74EFC386108E0FFF74AFCAB
:10209C0002463B69D31A022B01D903237AE11D4B6B
:1020AC001B6803F00203002BF0D17B681B6803F064
:1020BC000803002B3AD07B689B69002B19D0174B77
:1020CC0001221A60FFF72EFC386108E0FFF72AFCAA
:1020DC0002463B69D31A022B01D903235AE10D4B5B
:1020EC005B6A03F00203002BF0D0012000F09AFA97
:1020FC001CE00A4B00221A60FFF714FC38610FE059
:10210C00FFF710FC02463B69D31A022B08D90323B4
:10211C0040E100BF001002400000424280044242F5
:10212C009E4B5B6A03F00203002BE9D17B681B68B2
:10213C0003F00403002B00F0A6800023FB75974BE3
:10214C00DB6903F08053002B0DD1944BDB69934A70
:10215C0043F08053D361914BDB6903F08053BB6038
:10216C00BB680123FB758E4B1B6803F48073002B3B
:10217C0018D18B4B1B688A4A43F480731360FFF7AA
:10218C00D1FB386108E0FFF7CDFB02463B69D31A5F
:10219C00642B01D90323FDE0814B1B6803F480738E
:1021AC00002BF0D07B68DB68012B06D17B4B1B6AC4
:1021BC007A4A43F0010313622DE07B68DB68002B45
:1021CC000CD1764B1B6A754A23F001031362734BD7
:1021DC001B6A724A23F0040313621CE07B68DB6801
:1021EC00052B0CD16D4B1B6A6C4A43F00403136234
:1021FC006A4B1B6A694A43F0010313620BE0674B9D
:10220C001B6A664A23F001031362644B1B6A634A20
:10221C0023F0040313627B68DB68002B15D0FFF7F7
:10222C0081FB38610AE0FFF77DFB02463B69D31A5C
:10223C0041F28832934201D90323ABE0574B1B6A1E
:10224C0003F00203002BEED014E0FFF76BFB3861B8
:10225C000AE0FFF767FB02463B69D31A41F288326A
:10226C00934201D9032395E04C4B1B6A03F0020304
:10227C00002BEED1FB7D012B05D1484BDB69474A86
:10228C0023F08053D3617B68DB69002B00F08180E5
:10229C00424B5B6803F00C03082B61D07B68DB6955
:1022AC00022B46D13F4B00221A60FFF73BFB3861F3
:1022BC0008E0FFF737FB02463B69D31A022B01D922
:1022CC00032367E0354B1B6803F00073002BF0D140
:1022DC007B681B6AB3F5803F08D1304B5B6823F4F5
:1022EC0000327B689B682D4913434B602B4B5B681A
:1022FC0023F474127B68196A7B685B6A0B43274969
:10230C0013434B60274B01221A60FFF70BFB38611C
:10231C0008E0FFF707FB02463B69D31A022B01D9F1
:10232C00032337E01D4B1B6803F00073002BF0D028
:10233C002FE01C4B00221A60FFF7F4FA386108E01A
:10234C00FFF7F0FA02463B69D31A022B01D903239B
:10235C0020E0124B1B6803F00073002BF0D118E047
:10236C007B68DB69012B01D1012313E00B4B5B680C
:10237C00FB60FB6803F480327B681B6A9A4206D1CF
:10238C00FB6803F470127B685B6A9A4201D00123EC
:10239C0000E0002318461837BD4680BD00100240EF
:1023AC00007000406000424280B584B000AF78609D
:1023BC0039607B68002B01D10123D0E06A4B1B688C
:1023CC0003F007033A689A4210D9674B1B6823F055
:1023DC00070265493B6813430B60634B1B6803F0B2
:1023EC0007033A689A4201D00123B8E07B681B6866
:1023FC0003F00203002B20D07B681B6803F004035E
:10240C00002B05D0594B5B68584A43F4E06353608A
:10241C007B681B6803F00803002B05D0534B5B68EB
:10242C00524A43F460535360504B5B6823F0F00204
:10243C007B689B684D4913434B607B681B6803F0BA
:10244C000103002B40D07B685B68012B07D1474B05
:10245C001B6803F40033002B15D101237FE07B684C
:10246C005B68022B07D1414B1B6803F00073002BF8
:10247C0009D1012373E03D4B1B6803F00203002BD1
:10248C0001D101236BE0394B5B6823F003027B68BD
:10249C005B68364913434B60FFF744FAF8600AE077
:1024AC00FFF740FA0246FB68D31A41F28832934296
:1024BC0001D9032353E02D4B5B6803F00C027B68BE
:1024CC005B689B009A42EBD1274B1B6803F0070318
:1024DC003A689A4210D2244B1B6823F00702224917
:1024EC003B6813430B60204B1B6803F007033A68EF
:1024FC009A4201D0012332E07B681B6803F004038D
:10250C00002B08D0194B5B6823F4E0627B68DB6816
:10251C00164913434B607B681B6803F00803002BC0
:10252C0009D0124B5B6823F460527B681B69DB009B
:10253C000E4913434B6000F021F802460B4B5B68CD
:10254C001B0903F00F030A49CB5C22FA03F3094A77
:10255C001360094B1B681846FFF7A2F900231846B5
:10256C001037BD4680BD00BF002002400010024065
:10257C00942E0008400000204400002080B487B056
:10258C0000AF0023FB600023BB6000237B610023B2
:10259C007B6000233B611E4B5B68FB60FB6803F0B8
:1025AC000C03042B02D0082B03D027E0194B3B6102
:1025BC0027E0FB689B0C03F00F03174AD35C7B608E
:1025CC00FB6803F48033002B10D0114B5B685B0C61
:1025DC0003F00103114AD35CBB607B680D4A02FB1C
:1025EC0003F2BB68B2FBF3F37B6104E07B680C4A3B
:1025FC0002FB03F37B617B693B6102E0054B3B61B2
:10260C0000BF3B6918461C37BD4680BC704700BFF5
:10261C000010024000127A00A42E0008B42E00080C
:10262C0000093D0080B485B000AF78600A4B1B6890
:10263C000A4AA2FB03235B0A7A6802FB03F3FB60E2
:10264C0000BFFB685A1EFA60002BF9D100BF00BF17
:10265C001437BD4680BC704740000020D34D62103B
:10266C0080B582B000AF78607B68002B01D101236C
:10267C0041E07B6893F83D30DBB2002B06D17B68E0
:10268C00002283F83C207868FFF772F87B680222FE
:10269C0083F83D207B681A687B6804331946104622
:1026AC0000F056FA7B68012283F846207B680122F1
:1026BC0083F83E207B68012283F83F207B6801224F
:1026CC0083F840207B68012283F841207B6801223B
:1026DC0083F842207B68012283F843207B68012227
:1026EC0083F844207B68012283F845207B68012213
:1026FC0083F83D20002318460837BD4680BD0000F6
:10270C0080B485B000AF78607B6893F83D30DBB265
:10271C00012B01D0012335E07B68022283F83D2098
:10272C007B681B68DA687B681B6842F00102DA6020
:10273C007B681B68164A934209D07B681B68B3F10F
:10274C00804F04D07B681B68124A934211D17B687E
:10275C001B689B6803F00703FB60FB68062B10D01B
:10276C007B681B681A687B681B6842F001021A6060
:10277C0007E07B681B681A687B681B6842F00102E3
:10278C001A60002318461437BD4680BC704700BF42
:10279C00002C01400004004080B584B000AF78608C
:1027AC007B681B68DB68FB607B681B681B69BB6014
:1027BC00BB6803F00203002B20D0FB6803F002037C
:1027CC00002B1BD07B681B686FF002021A617B68C0
:1027DC0001221A777B681B689B6903F00303002BAB
:1027EC0003D0786800F098F905E0786800F08BF970
:1027FC00786800F09AF97B6800221A77BB6803F0BE
:10280C000403002B20D0FB6803F00403002B1BD027
:10281C007B681B686FF004021A617B6802221A77CE
:10282C007B681B689B6903F44073002B03D07868AA
:10283C0000F072F905E0786800F065F9786800F04E
:10284C0074F97B6800221A77BB6803F00803002B2D
:10285C0020D0FB6803F00803002B1BD07B681B689F
:10286C006FF008021A617B6804221A777B681B6878
:10287C00DB6903F00303002B03D0786800F04CF9FC
:10288C0005E0786800F03FF9786800F04EF97B6855
:10289C0000221A77BB6803F01003002B20D0FB68D2
:1028AC0003F01003002B1BD07B681B686FF0100229
:1028BC001A617B6808221A777B681B68DB6903F452
:1028CC004073002B03D0786800F026F905E0786897
:1028DC0000F019F9786800F028F97B6800221A7763
:1028EC00BB6803F00103002B0CD0FB6803F0010361
:1028FC00002B07D07B681B686FF001021A617868A7
:10290C00FEF7F2FEBB6803F08003002B0CD0FB68D3
:10291C0003F08003002B07D07B681B686FF08002EC
:10292C001A61786800F06FFABB6803F04003002B63
:10293C000CD0FB6803F04003002B07D07B681B68AE
:10294C006FF040021A61786800F0F8F8BB6803F089
:10295C002003002B0CD0FB6803F02003002B07D0C6
:10296C007B681B686FF020021A61786800F042FAED
:10297C0000BF1037BD4680BD80B584B000AF786015
:10298C0039600023FB737B6893F83C30012B01D139
:10299C000223B4E07B68012283F83C207B6802228E
:1029AC0083F83D207B681B689B68BB60BB6823F089
:1029BC007703BB60BB6823F47F43BB607B681B68F9
:1029CC00BA689A603B681B68B3F5005F3ED0B3F5FC
:1029DC00005F00F28780B3F5805F00F08680B3F56E
:1029EC00805F7FD8702B1AD0702B7BD8602B50D087
:1029FC00602B77D8502B3CD0502B73D8402B58D011
:102A0C00402B6FD8302B64D0302B6BD8202B60D060
:102A1C00202B67D8002B5CD0102B5AD062E07B683F
:102A2C0018683B6899683B685A683B68DB6800F03B
:102A3C006AF97B681B689B68BB60BB6843F07703D3
:102A4C00BB607B681B68BA689A604FE07B6818684B
:102A5C003B6899683B685A683B68DB6800F053F93F
:102A6C007B681B689A687B681B6842F480429A609A
:102A7C003CE07B6818683B6859683B68DB681A4621
:102A8C0000F0CAF87B681B685021184600F021F949
:102A9C002CE07B6818683B6859683B68DB681A4611
:102AAC0000F0E8F87B681B686021184600F011F90B
:102ABC001CE07B6818683B6859683B68DB681A4601
:102ACC0000F0AAF87B681B684021184600F001F959
:102ADC000CE07B681A683B681B681946104600F0CE
:102AEC00F8F803E00123FB7300E000BF7B680122D0
:102AFC0083F83D207B68002283F83C20FB7B184642
:102B0C001037BD4680BD80B483B000AF786000BF85
:102B1C000C37BD4680BC704780B483B000AF786082
:102B2C0000BF0C37BD4680BC704780B483B000AF8B
:102B3C00786000BF0C37BD4680BC704780B483B052
:102B4C0000AF786000BF0C37BD4680BC70470000FA
:102B5C0080B485B000AF786039607B681B68FB601F
:102B6C007B682B4A934207D07B68B3F1804F03D02C
:102B7C007B68284A934208D1FB6823F07003FB6002
:102B8C003B685B68FA681343FB607B68204A93429E
:102B9C0007D07B68B3F1804F03D07B681D4A93420A
:102BAC0008D1FB6823F44073FB603B68DB68FA6870
:102BBC001343FB60FB6823F080023B685B691343A3
:102BCC00FB607B68FA681A603B689A687B68DA621B
:102BDC003B681A687B689A627B680D4A934203D102
:102BEC003B681A697B681A637B6801225A617B68AF
:102BFC001B6903F00103002B05D07B681B6923F0D4
:102C0C0001027B681A6100BF1437BD4680BC704757
:102C1C00002C01400004004080B487B000AFF86085
:102C2C00B9607A60FB681B6A7B61FB681B6A23F0E6
:102C3C000102FB681A62FB689B693B613B6923F0EC
:102C4C00F0033B617B681B013A6913433B617B6971
:102C5C0023F00A037B617A69BB6813437B61FB68D1
:102C6C003A699A61FB687A691A6200BF1C37BD46E3
:102C7C0080BC704780B487B000AFF860B9607A60F0
:102C8C00FB681B6A7B61FB681B6A23F01002FB6804
:102C9C001A62FB689B693B613B6923F470433B619F
:102CAC007B681B033A6913433B617B6923F0A003E8
:102CBC007B61BB681B017A6913437B61FB683A69D2
:102CCC009A61FB687A691A6200BF1C37BD4680BCEA
:102CDC00704780B485B000AF786039607B689B68C2
:102CEC00FB60FB6823F07003FB603A68FB681343DE
:102CFC0043F00703FB607B68FA689A6000BF1437E7
:102D0C00BD4680BC704780B487B000AFF860B96036
:102D1C007A603B60FB689B687B617B6923F47F4333
:102D2C007B613B681A027B681A43BB6813437A6960
:102D3C0013437B61FB687A699A6000BF1C37BD4600
:102D4C0080BC704780B485B000AF786039607B6818
:102D5C0093F83C30012B01D1022341E07B68012226
:102D6C0083F83C207B68022283F83D207B681B683B
:102D7C005B68FB607B681B689B68BB60FB6823F02F
:102D8C007003FB603B681B68FA681343FB607B684D
:102D9C001B68FA685A607B681B68144A934209D016
:102DAC007B681B68B3F1804F04D07B681B68104AAA
:102DBC0093420CD1BB6823F08003BB603B685B681B
:102DCC00BA681343BB607B681B68BA689A607B68FF
:102DDC00012283F83D207B68002283F83C200023ED
:102DEC0018461437BD4680BC704700BF002C01400C
:102DFC000004004080B483B000AF786000BF0C3793
:102E0C00BD4680BC704780B483B000AF786000BF13
:102E1C000C37BD4680BC704770B500260C4D0D4C70
:102E2C00641BA410A64209D100F022F800260A4D1A
:102E3C000A4C641BA410A64205D170BD55F8043B86
:102E4C0098470136EEE755F8043B98470136F2E710
:102E5C00B82E0008B82E0008B82E0008BC2E0008AA
:102E6C0003460244934200D1704703F8011BF9E773
:102E7C00F8B500BFF8BC08BC9E467047F8B500BF5B
:082E8C00F8BC08BC9E4670472B
:102E94000000000000000000010203040607080906
:102EA40002030405060708090A0B0C0D0E0F101087
:042EB4000102000017
:042EB80031010008DC
:042EBC000D010008FC
:102EC0000100000000000000000000000100000000
:102ED00000000000000000000100000000000000F1
:102EE00000000000010000000000000000000000E1
:102EF0003200000088130000B80B0000D00700006B
:0C2F000000127A00100000000100000028
:0400000508001835A2
:00000001FF
